:02000000842852
:1000060083120313A201A301A201A30180302306D8
:10001600F00080307002031D1228323022020318CD
:100026002D2888140330FC001230FD00FD0B192822
:10003600FC0B1928000088103230FC00DD30FD0072
:10004600FD0B2328FC0B232800000000A20A03193D
:06005600A30A09280800BE
:10005C0083120313A201A301A201A3018030230682
:10006C00F00080307002031D3D283230220203184C
:10007C00582888140630FC00B530FD00FD0B4428D0
:10008C00FC0B44280000000088102F30FC003A3094
:10009C00FD00FD0B4F28FC0B4F280000A20A031992
:0600AC00A30A342808003D
:1000B20083120313A201A301A201A301803023062C
:1000C200F00080307002031D6828323022020318CB
:1000D200832888140430FC00E430FD00FD0B6F28F7
:1000E200FC0B6F28000088103130FC000B30FD0043
:1000F200FD0B7928FC0B792800000000A20A0319E5
:06010200A30A5F280800BB
:100108008316031388108312881003201530FB0010
:100118004B30FC00BE30FD00FD0B9028FC0B9028F6
:10012800FB0B9028000059201530FB004B30FC00D9
:10013800BE30FD00FD0B9E28FC0B9E28FB0B9E2865
:1001480000002E201530FB004B30FC00BE30FD00B7
:10015800FD0BAC28FC0BAC28FB0BAC280000892855
:02016800B428B9
:02400E004A2F37
:00000001FF
