:020000001628C0
:0E000600831203132B088A002A0882000800C8
:1000140003208A110A128000840AAA0A0319AB0A6F
:08002400F003031D0A28080087
:10002C00C03083120313A000F930A100A430A20049
:10003C00B030A3009930A4009230A5008230A60005
:10004C00F830A7008030A8009030A900AC01AD01B9
:10005C008316880106148614FF3083128800861CD0
:10006C0058280230FB008630FC009930FD00FD0B57
:10007C003D28FC0B3D28FB0B3D28861C5828803066
:10008C002D06F00080307002031D4E2809302C0222
:10009C0003185328AC0A0319AD0A2C08203E84001F
:1000AC0000088800061C7C280230FB008630FC000F
:1000BC009930FD00FD0B6028FC0B6028FB0B6028C1
:1000CC00061C7C288030F00080302D067002031D49
:1000DC0071282C08003C031877280130AC02031C53
:1000EC00AD032C08203E84000008880035287D28AC
:02400E004A2F37
:00000001FF
