:02000000862D4B
:0E000600213083120313FD00FD0B07280800B4
:100014000F3083120313FC004730FD00FD0B102842
:0A002400FC0B10280000000008008B
:06002E00000000000800C4
:1000340083120313E21B2028881321288817621BCC
:100044002528081326280817E21A2A2888122B289C
:100054008816621A2F2808123028081646183428E1
:10006400081535280811881517208811E2193C282D
:1000740088133D2888176219412808134228081755
:10008400E218462888124728881662184B28081256
:100094004C280816461850280815512808118815A8
:1000A40017208811461C58280A20592803200800C4
:0E00B400F201F101F001F801F3010030080043
:1000C200FB14FB1F6B28FF30F300F200F100F0007D
:0800D200FA0DF20CFF300800EA
:1000DA007B15FB1F77280130F300F201F101F001D3
:0800EA00FA0DF20CFF300800D2
:0800F200FA1FF21300300800B0
:1000FA000E3083120313FD00FD0B81280000080057
:10010A00A0017208031D9A287108F2007008F10014
:10011A00F001A0157208031D9A287108F200F10176
:10012A00A011201672080319A8282008F302031D3B
:10013A00031CAC280310F21BB028F00DF10DF20DD0
:10014A00F30BA028AC280130FC005A20B328023057
:0E015A00FC006D20B3280430FC007920080062
:100168008312031346106008E2001A2046140800A0
:0E0178008312031342088A0041088200080027
:10018600831203136008F2007208F100F20A610894
:10019600F000E10A700884000008F000710884008D
:1001A600700880007108840000080319DB28C7283E
:0601B6006008F0000800E3
:1001BC0083120313FA017308031D7A147708031DC5
:1001CC00FA147A0803192A29033A0319F5287A181C
:1001DC00F228F61F28292629F21F26292829720819
:1001EC008039FA00F21376088039F6137A0603196F
:1001FC0003297A0803192629282977087302031979
:10020C000A29031C1E2922297608720203191129B6
:10021C00031C1E2922297508710203191829031CB5
:10022C001E2922297408700203192A29031822296D
:10023C00FA08031928292629FA0803192629282936
:10024C000314080003100800031403150800080029
:10025C0083120313FB017308031D77080319852907
:10026C0072087606FA007708F3077E30031C4229E1
:10027C00F302031888294529F302031C8B29720801
:10028C00F8007108FC007008FD00F817F617031051
:10029C00F201F101F0011830A0007D1C5F297408F7
:1002AC00F00775080318750FF10776080318760F19
:1002BC00F207F20CF10CF00CF80CFC0CFD0C03101A
:1002CC00A00B5329F21B6F29F80DF00DF10DF20D57
:1002DC00F3037B1B701C8129F81F8129F00A031979
:1002EC00F10A0319F20A031D8129F20CF10CF00C2E
:1002FC00F30A03198829FA1FF21300308D290130F3
:10030C005A208D29023061208D2904306D20000087
:02031C000800D7
:10031E0083120313FD01F8017008031900347406EB
:10032E00FA00FA1BFD09FB01F41F9F29F409F40AD8
:10033E00F01FA329F009F00A70087404FA00FA1BE2
:10034E00C7297408F802F00D700DF80D7408F8073F
:10035E00F00D0630FC00700DF80D74087018F802E0
:10036E00701CF807F00DFC0BB229701CF8077B18F7
:10037E00D529FD1F0034F009F00AF809F80A0034F7
:10038E00F41FD229F01BCF297008F800F001C02904
:10039E00F001F00A0034F009FB0AA829F80A7408E3
:1003AE007802031DC029F801F00AF01FC029FF349E
:0203BE00080035
:0603C000FB15FF300800F0
:1003C60083120313DE01DF015308DA005408DB0051
:1003D6005508DC005608DD005D08FF3A031DFD29BF
:1003E6005C08FF3A031DFD295B08FF3A031DFD2942
:1003F6005A08FF3A031D072A5708E0002F30E1008C
:10040600C3200330F000E02B0130D800DC1F162A91
:1004160080305C06F0007008DC00D80A57088400BB
:100426002D308000D70A0030F0005D06031D252A16
:1004360070085C06031D252A70085B06031D252A25
:100446005A08003A031D2E2A5708E0003730E1000B
:10045600C320F001E02B5D08FF3A031D3C2A5C082F
:10046600003A031D3C2A5B08003A031D3C2A5A0841
:10047600003A031D462A5708E0003330E100C32046
:100486005808F000E02B0030F4000030F500003092
:10049600F6007F30F7005A08F0005B08F1005C08B0
:1004A600F2005D08F300DE20013003180030F00092
:1004B60070080319792A5A08F0005B08F1005C08F5
:1004C600F2005D08F3000030F4000030F500203043
:1004D600F6008230F7002E217008DA007108DB0082
:1004E6007208DC007308DD00DF03462A0030F400E2
:1004F6000030F5002030F6008230F7005A08F00090
:100506005B08F1005C08F2005D08F300DE200130B4
:10051600031C0030F00070080319AC2A5A08F000DA
:100526005B08F1005C08F2005D08F300CD30F400D2
:10053600CC30F5004C30F6007B30F7002E217008E9
:10054600DA007108DB007208DC007308DD00DF0AE0
:10055600792AFF305A05F800FF305B05F9007F3035
:100566005C05FA0000305D05FB007808F4007908A8
:10057600F5007A08F6007B08F700F40DF50DF60D88
:10058600F70D741000305A05F00000305B05F100DD
:1005960000305C05F200FF305D05F3007008DA00FC
:1005A6007108DB007208DC007308DD0074085A0469
:1005B600F00075085B04F10076085C04F200770829
:1005C6005D04F3007008DA007108DB007208DC00D5
:1005D6007308DD007F305D02F0007008D90001303D
:1005E600DD007008F4005A08F0005B08F1005C08B2
:1005F600F2005D08F30074080319082BF00DF10DE5
:10060600F20DF30D7010FF3EFF2A7008DA00710834
:10061600DB007208DC007308DD005D08303EF00088
:100626005708840070088000D70A80305F06F00003
:100636008030013A7002031C292B8030063AF00004
:1006460080305F067002031C292B302B570884006C
:100656002E308000D70A0130DE000630D900590856
:10066600003A03198E2BDD015A08F0005B08F100F1
:100676005C08F2005D08F300F00DF10DF20DF30DCC
:100686007010F00DF10DF20DF30D70105A08F00711
:100696005B0803185B0FF1075C0803185C0FF20791
:1006A6005D0803185D0FF3077008DA007108DB00B8
:1006B6007208DC007308DD005A08F0005B08F100E0
:1006C6005C08F2005D08F300F00DF10DF20DF30D7C
:1006D60070107008DA007108DB007208DC0073081D
:1006E600DD005D08303EF000570884007008800089
:1006F600D70A5E08003A031D8C2BDF035F08003A19
:10070600031D8C2B570884002E308000D70A013039
:10071600DE00D903322BFF30570784000008303A39
:10072600031D972BD7038E2BFF3057078400000835
:100736002E3A031D9F2BD7035F08003A0319DC2BC3
:100746005708840065308000D70A80305F06F000C5
:100756008030003A70020318B82B570884002D30F9
:100766008000D70A5F08003CDF005F08D9008030B0
:10077600093AF00080305F0670020318CE2B0A306B
:10078600F4005908F0008F213030F0075708840034
:1007960070088000D70A0A30F4005908F0008F214B
:1007A6007808F0003030F0075708840070088000A1
:0C07B600D70A570884008001F0010800F9
:1007C200831203139F01C0309F042D09F0007008AB
:1007D20083169F051F179F1783125308F000F00D11
:1007E2007010F00D7010F00D701070089F041F143F
:1007F2007D201F151F1DFF2B0000FB2B1F101E0845
:10080200F100F00183161E08F0040030F104080024
:10081200831203137408003A031D242C7508003A4E
:10082200031D242C7608003A031D242C7708003A75
:10083200031D242CFF30F000FF30F1007F30F20066
:10084200FF30F300BF2C8312031377080319B32C74
:1008520073080319B62C720876068039FA00F2176B
:10086200F617A0017208F8007108FC007008FD007C
:100872007408FD027508031C750FFC027608031C40
:10088200760FF802F801FC01FD01031C4F2C031046
:10089200F20CF10CF00CF80C0130A0007708F30216
:1008A200031C592C7E302007F3070318B92C5E2C49
:1008B2007E302007F307031CBC2C1830FA07FD0D0D
:1008C200FC0DF80DF00DF10DF20DA00D7408F00203
:1008D2007508031C750FF1027608031C760FF202ED
:1008E200760DA004201C772C7D14822C7408F0074E
:1008F20075080318750FF10776080318760AF207D0
:100902007D10FA031F307A05031D602C7B1B7D1CB2
:10091200A92C0310F00DF10DF20DA00D7408F002D8
:100922007508031C750FF1027608031C760FF2029C
:10093200760D20040139FD070318FC0A0319F80A91
:10094200031DA92CF80CFC0CFD0CF30A0319B92C9D
:10095200FA1FF8137808F2007C08F1007D08F00015
:100962000030BE2C0130E021BE2C02305A20BE2CB9
:0E09720004306120BE2C08306D20000008000B
:10098000D22C803083120313D300E52CC030D30067
:10099000E52C9430D300E52CD430D300E52C803006
:1009A000D300E52C831203135308013A0319C12C19
:1009B0005308023A0319C62C5308033A0319C92CE9
:1009C0005308043A0319CC2CCF2C5403F0005308DD
:1009D000F0077008D3007008E2001A204610D60114
:1009E00056085507840000080319FE2C56085507C1
:1009F00084000008E000B420D60AF02C4614080059
:100A0000831603138811081108128812081388131B
:100A100083128811081188130813881208120A20FB
:100A20000A200A20881608168815172088110A201F
:100A30008815172088110A208815172088110A2088
:100A400008128815172088110A2088151720881188
:100A5000881288178815172088110A20881308160D
:100A600088151720881108128815172088110A2068
:100A700088151720881108168815172088110A2054
:100A80000812881517208811881708178816081665
:0C0A90008815172088110A204614080061
:100A9C00FF3083120313C300FF30C400FF30C500C6
:100AAC00FF309F01C0309F042D09F00070088316A1
:0C0ABC009F051F179F1783121F140800CE
:100AC800831203137008F8007108F000F101F201B5
:100AD800F301FB01FC019630F300FA017008F10004
:0C0AE8007808F000F801F20185200800F9
:100AF400BC208A110A128000840AC10A0319C20A9E
:080B0400F003031D7A2D080027
:100B0C0028260630831603139F0007309C004E25C1
:100B1C0000250130E2001A200C30E2001A200130CE
:100B2C00D3000130D4002130D500C0241530FB0097
:100B3C004B30FC00BE30FD00FD0BA22DFC0BA22D9A
:100B4C00FB0BA22D00000130E2001A200130D30073
:100B5C00E12364257008CF007108D0007208D10021
:100B6C007308D200F630F4002830F5001C30F60083
:100B7C008130F7002E210030F4000030F5002030D9
:100B8C00F6008230F70009247008CB007108CC0005
:100B9C007208CD007308CE007008D3007108D40021
:100BAC007208D5007308D6004730D700E321013016
:100BBC00E2001A200130D3000130D4003930D500C6
:100BCC00C0240130D3000830D4004730D500C024F5
:100BDC004730E0002E30E100C3201030FB003930EC
:100BEC00FC000D30FD00FD0BF92DFC0BF92DFB0B62
:0A0BFC00F92D00000000AC2D022EC0
:100C500021308400203083120313F0000830C100DB
:080C60000630C2007A250800ED
:100C1000543465346D3470342034533465346E3458
:080C200073346F3472340034A8
:020C28000F3487
:020C2A00003494
:080C2C004E3461344E340034F3
:080C340049344E34463400340B
:040C3C00303400341C
:100C4000543465346D34703420343D3420340034F1
:02400E004A2F37
:00000001FF
