:02000000762860
:1000060083120313FB01FA01F9018030F800F10CA9
:10001600F00C031C17287408F90775080318750FE8
:10002600FA070318FB0A0310F01F1F287408FA07C3
:1000360075080318750FFB07FB0CFA0CF90CF80C86
:10004600031C0A287B08F3007A08F2007908F100FD
:060056007808F00008002C
:0C005C008312031395011712971208007D
:10006800831603130711831212150C309704080026
:10007800831603131208013EF000F1010318F10A78
:1000880083122308F400F50103200630F2007008FB
:10009800F4007108F500720803195728F50CF40CE0
:1000A800F513FF3E50280430F1007408F000710881
:1000B80003196228F00D7010FF3E5C28303070057F
:1000C800F3007408F0007508F100F10CF00CF1135E
:1000D800F10CF00CF113700895000F3097057308B8
:0400E8009704080071
:1000EC0083120313A20183160810881006148614B9
:1000FC00831208148810121492147C308316920008
:10010C002E203420061CB9288030A21B7F30F00032
:10011C0080307002031D9428FA3022020318B9288B
:10012C000230FB000430FC00BA30FD00FD0B9C28B3
:10013C00FC0B9C28FB0B9C280000061CB92880306B
:10014C00A21B7F30F00080307002031DAF28FA3004
:10015C0022020318B9280A302207F0007008A20006
:10016C007008A3003C20861CE2288030003AF00086
:10017C008030220670020318E2280230FB000430A3
:10018C00FC00BA30FD00FD0BC928FC0BC928FB0B89
:10019C00C9280000861CE2288030003AF00080302C
:1001AC00220670020318E2280A302202F0007008BE
:0C01BC00A2007008A3003C208828E32863
:02400E004A2F37
:00000001FF
