:020000000328D3
:100006008316031386018801803083128800DF304F
:1000160086004230FD00FD0B0E28000040308800AF
:10002600DF3086004230FD00FD0B1728000020302F
:100036008800DB3086004230FD00FD0B20280000E2
:1000460010308800DB3086004230FD00FD0B292889
:10005600000008308800DB3086004230FD00FD0BD2
:100066003228000004308800DB3086004230FD0074
:10007600FD0B3B28000002308800FB308600423032
:10008600FD00FD0B4428000001308800FB3086008F
:0E0096004230FD00FD0B4D28000007285128C8
:02400E004A2F37
:00000001FF
