:020000000328D3
:1000060083160313860188018030831288008601D7
:100016004230FD00FD0B0D280000403088008601AF
:100026004230FD00FD0B152800002030880090307E
:1000360086004230FD00FD0B1E28000010308800AF
:10004600903086004230FD00FD0B27280000083066
:100056008800903086004230FD00FD0B30280000FD
:1000660004308800903086004230FD00FD0B3928B0
:10007600000002308800FF3086004230FD00FD0B94
:10008600422800000130880086014230FD00FD0B49
:080096004A28000007284E284B
:02400E004A2F37
:00000001FF
