:02000000AB282B
:10000600710DF80DF90D7408F8027508031C750FCB
:10001600F902F00DF10D0F30FC00710DF80DF90D20
:100026007408701C1C28F8027508031C750FF90269
:100036002128F80775080318750FF907F00DF10D5B
:10004600FC0B102870182D287408F807750803187B
:08005600750FF9070000080016
:0E005E00831203132B088A002A088200080070
:10006C002F208A110A128000840AAA0A0319AB0AEB
:08007C00F003031D3628080003
:10008400831203137408003A031D51287508003ABB
:10009400031D5128FF30F0007F30F100AA2883129D
:1000A4000313FD01F901F801710870040319003408
:1000B40071087506FA00FA1BFD09FB01F51F672894
:1000C400F409F509F40A0319F50AF11F6E28F00979
:1000D400F109F00A0319F10A71087504FA00FA1B10
:1000E400832803207B189628FD1F0034F009F109AA
:1000F400F00A0319F10AF809F909F80A0319F90AC7
:100104000034F51F9228F11B8E287108F90070083D
:10011400F800F101F0017628F101F001F00A003451
:10012400F109F009FB0A7328F80A0319F90A74089B
:100134007802031D762875087902031D7628F901D3
:10014400F801F00A0319F10AF11F76280000FF34C0
:020154000800A1
:10015600C03083120313A000F930A100A430A2001E
:10016600B030A3009930A4009230A5008230A600DA
:10017600F830A7008030A8009030A90083168601C9
:10018600831286018316880183128801AC01AD01B2
:1001960080302D06F0008030273A7002031DD528E6
:1001A60010302C0203189C29E830F4000330F500C7
:1001B6002C08F0002D08F10042207008B0007108EC
:1001C600B1006430F4000030F5002C08F0002D0872
:1001D600F10042200A30F4000030F5004220780891
:1001E600F0007908F1007008B2007108B3000A3017
:1001F600F4000030F5002C08F0002D08F100422034
:100206000A30F4000030F50042207808F000790842
:10021600F1007008B4007108B5000A30F40000302F
:10022600F5002C08F0002D08F10042207808F000B7
:100236007908F1007008B6007108B700AE01AF0189
:1002460080302F06F00080307002031D2C290C3000
:100256002E020318982980302D06F0008030033ACC
:100266007002031D3829E8302C02031C4B290814A0
:100276003008203E8400000886000D30FC00FB306C
:10028600FD00FD0B4429FC0B44290000000008106A
:1002960080302D06F00080307002031D5429643032
:1002A6002C02031C672988143208203E84000008AB
:1002B60086000D30FC00FB30FD00FD0B6029FC0BB9
:1002C600602900000000881080302D06F000803084
:1002D6007002031D70290A302C02031C832908159D
:1002E6003408203E8400000886000D30FC00FB30F8
:1002F600FD00FD0B7C29FC0B7C2900000000081189
:1003060088153608203E8400000886000D30FC0063
:10031600FB30FD00FD0B8D29FC0B8D290000000034
:100326008811AE0A0319AF0A2329AC0A0319AD0ACC
:06033600CB28C9289D2917
:02400E004A2F37
:00000001FF
